{
  "_format": "hh-sol-artifact-1",
  "contractName": "Marketplace",
  "sourceName": "contracts/Lock.sol",
  "abi": [
    {
      "inputs": [
        {
          "internalType": "uint256",
          "name": "_sellingFeePerInBips",
          "type": "uint256"
        }
      ],
      "stateMutability": "nonpayable",
      "type": "constructor"
    },
    {
      "anonymous": false,
      "inputs": [
        {
          "indexed": true,
          "internalType": "address",
          "name": "owner",
          "type": "address"
        },
        {
          "indexed": true,
          "internalType": "address",
          "name": "approved",
          "type": "address"
        },
        {
          "indexed": true,
          "internalType": "uint256",
          "name": "tokenId",
          "type": "uint256"
        }
      ],
      "name": "Approval",
      "type": "event"
    },
    {
      "anonymous": false,
      "inputs": [
        {
          "indexed": true,
          "internalType": "address",
          "name": "owner",
          "type": "address"
        },
        {
          "indexed": true,
          "internalType": "address",
          "name": "operator",
          "type": "address"
        },
        {
          "indexed": false,
          "internalType": "bool",
          "name": "approved",
          "type": "bool"
        }
      ],
      "name": "ApprovalForAll",
      "type": "event"
    },
    {
      "anonymous": false,
      "inputs": [
        {
          "indexed": false,
          "internalType": "address",
          "name": "BlacklistedBy",
          "type": "address"
        },
        {
          "indexed": false,
          "internalType": "address",
          "name": "Blacklisted",
          "type": "address"
        }
      ],
      "name": "Blacklisted",
      "type": "event"
    },
    {
      "anonymous": false,
      "inputs": [
        {
          "indexed": false,
          "internalType": "address",
          "name": "remover",
          "type": "address"
        },
        {
          "indexed": false,
          "internalType": "address",
          "name": "removed",
          "type": "address"
        }
      ],
      "name": "BlacklistedRemoved",
      "type": "event"
    },
    {
      "anonymous": false,
      "inputs": [
        {
          "indexed": false,
          "internalType": "uint256",
          "name": "tokenId",
          "type": "uint256"
        },
        {
          "indexed": false,
          "internalType": "address",
          "name": "creator",
          "type": "address"
        },
        {
          "indexed": false,
          "internalType": "address",
          "name": "seller",
          "type": "address"
        },
        {
          "indexed": false,
          "internalType": "address",
          "name": "owner",
          "type": "address"
        },
        {
          "indexed": false,
          "internalType": "uint256",
          "name": "price",
          "type": "uint256"
        },
        {
          "indexed": false,
          "internalType": "string",
          "name": "category",
          "type": "string"
        }
      ],
      "name": "NFTListed",
      "type": "event"
    },
    {
      "anonymous": false,
      "inputs": [
        {
          "indexed": false,
          "internalType": "uint256",
          "name": "tokenId",
          "type": "uint256"
        },
        {
          "indexed": false,
          "internalType": "address",
          "name": "creator",
          "type": "address"
        },
        {
          "indexed": false,
          "internalType": "address",
          "name": "owner",
          "type": "address"
        }
      ],
      "name": "NFTMinted",
      "type": "event"
    },
    {
      "anonymous": false,
      "inputs": [
        {
          "indexed": false,
          "internalType": "uint256",
          "name": "tokenId",
          "type": "uint256"
        },
        {
          "indexed": false,
          "internalType": "address",
          "name": "seller",
          "type": "address"
        },
        {
          "indexed": false,
          "internalType": "address",
          "name": "owner",
          "type": "address"
        },
        {
          "indexed": false,
          "internalType": "uint256",
          "name": "price",
          "type": "uint256"
        },
        {
          "indexed": false,
          "internalType": "string",
          "name": "category",
          "type": "string"
        }
      ],
      "name": "NFTSold",
      "type": "event"
    },
    {
      "anonymous": false,
      "inputs": [
        {
          "indexed": true,
          "internalType": "address",
          "name": "from",
          "type": "address"
        },
        {
          "indexed": true,
          "internalType": "address",
          "name": "to",
          "type": "address"
        },
        {
          "indexed": true,
          "internalType": "uint256",
          "name": "tokenId",
          "type": "uint256"
        }
      ],
      "name": "Transfer",
      "type": "event"
    },
    {
      "inputs": [],
      "name": "SELLING_FEE",
      "outputs": [
        {
          "internalType": "uint256",
          "name": "",
          "type": "uint256"
        }
      ],
      "stateMutability": "view",
      "type": "function"
    },
    {
      "inputs": [
        {
          "internalType": "uint256",
          "name": "",
          "type": "uint256"
        }
      ],
      "name": "_idToNFT",
      "outputs": [
        {
          "internalType": "uint256",
          "name": "tokenId",
          "type": "uint256"
        },
        {
          "internalType": "address",
          "name": "creator",
          "type": "address"
        },
        {
          "internalType": "address payable",
          "name": "seller",
          "type": "address"
        },
        {
          "internalType": "address",
          "name": "owner",
          "type": "address"
        },
        {
          "internalType": "uint256",
          "name": "price",
          "type": "uint256"
        },
        {
          "internalType": "string",
          "name": "category",
          "type": "string"
        },
        {
          "internalType": "bool",
          "name": "listed",
          "type": "bool"
        },
        {
          "internalType": "bool",
          "name": "sold",
          "type": "bool"
        }
      ],
      "stateMutability": "view",
      "type": "function"
    },
    {
      "inputs": [
        {
          "internalType": "address[]",
          "name": "_to",
          "type": "address[]"
        },
        {
          "internalType": "uint256[]",
          "name": "_id",
          "type": "uint256[]"
        }
      ],
      "name": "airdrop",
      "outputs": [],
      "stateMutability": "nonpayable",
      "type": "function"
    },
    {
      "inputs": [
        {
          "internalType": "address",
          "name": "to",
          "type": "address"
        },
        {
          "internalType": "uint256",
          "name": "tokenId",
          "type": "uint256"
        }
      ],
      "name": "approve",
      "outputs": [],
      "stateMutability": "nonpayable",
      "type": "function"
    },
    {
      "inputs": [
        {
          "internalType": "address",
          "name": "owner",
          "type": "address"
        }
      ],
      "name": "balanceOf",
      "outputs": [
        {
          "internalType": "uint256",
          "name": "",
          "type": "uint256"
        }
      ],
      "stateMutability": "view",
      "type": "function"
    },
    {
      "inputs": [
        {
          "internalType": "address",
          "name": "_artist",
          "type": "address"
        }
      ],
      "name": "blacklistAddRemove",
      "outputs": [],
      "stateMutability": "nonpayable",
      "type": "function"
    },
    {
      "inputs": [
        {
          "internalType": "uint256",
          "name": "_tokenId",
          "type": "uint256"
        }
      ],
      "name": "buyNft",
      "outputs": [],
      "stateMutability": "payable",
      "type": "function"
    },
    {
      "inputs": [
        {
          "internalType": "uint256",
          "name": "price",
          "type": "uint256"
        },
        {
          "internalType": "uint256",
          "name": "promoId",
          "type": "uint256"
        }
      ],
      "name": "calculateDiscount",
      "outputs": [
        {
          "internalType": "uint256",
          "name": "",
          "type": "uint256"
        }
      ],
      "stateMutability": "view",
      "type": "function"
    },
    {
      "inputs": [
        {
          "internalType": "string",
          "name": "tokenURI",
          "type": "string"
        },
        {
          "internalType": "uint256",
          "name": "price",
          "type": "uint256"
        },
        {
          "internalType": "uint256",
          "name": "categoryId",
          "type": "uint256"
        },
        {
          "internalType": "uint256",
          "name": "_promoId",
          "type": "uint256"
        }
      ],
      "name": "createToken",
      "outputs": [
        {
          "internalType": "uint256",
          "name": "",
          "type": "uint256"
        }
      ],
      "stateMutability": "nonpayable",
      "type": "function"
    },
    {
      "inputs": [
        {
          "internalType": "uint256",
          "name": "tokenId",
          "type": "uint256"
        }
      ],
      "name": "getApproved",
      "outputs": [
        {
          "internalType": "address",
          "name": "",
          "type": "address"
        }
      ],
      "stateMutability": "view",
      "type": "function"
    },
    {
      "inputs": [],
      "name": "getListedNfts",
      "outputs": [
        {
          "components": [
            {
              "internalType": "uint256",
              "name": "tokenId",
              "type": "uint256"
            },
            {
              "internalType": "address",
              "name": "creator",
              "type": "address"
            },
            {
              "internalType": "address payable",
              "name": "seller",
              "type": "address"
            },
            {
              "internalType": "address",
              "name": "owner",
              "type": "address"
            },
            {
              "internalType": "uint256",
              "name": "price",
              "type": "uint256"
            },
            {
              "internalType": "string",
              "name": "category",
              "type": "string"
            },
            {
              "internalType": "bool",
              "name": "listed",
              "type": "bool"
            },
            {
              "internalType": "bool",
              "name": "sold",
              "type": "bool"
            }
          ],
          "internalType": "struct Marketplace.NFT[]",
          "name": "",
          "type": "tuple[]"
        }
      ],
      "stateMutability": "view",
      "type": "function"
    },
    {
      "inputs": [],
      "name": "getMyListedNfts",
      "outputs": [
        {
          "components": [
            {
              "internalType": "uint256",
              "name": "tokenId",
              "type": "uint256"
            },
            {
              "internalType": "address",
              "name": "creator",
              "type": "address"
            },
            {
              "internalType": "address payable",
              "name": "seller",
              "type": "address"
            },
            {
              "internalType": "address",
              "name": "owner",
              "type": "address"
            },
            {
              "internalType": "uint256",
              "name": "price",
              "type": "uint256"
            },
            {
              "internalType": "string",
              "name": "category",
              "type": "string"
            },
            {
              "internalType": "bool",
              "name": "listed",
              "type": "bool"
            },
            {
              "internalType": "bool",
              "name": "sold",
              "type": "bool"
            }
          ],
          "internalType": "struct Marketplace.NFT[]",
          "name": "",
          "type": "tuple[]"
        }
      ],
      "stateMutability": "view",
      "type": "function"
    },
    {
      "inputs": [],
      "name": "getMyNfts",
      "outputs": [
        {
          "components": [
            {
              "internalType": "uint256",
              "name": "tokenId",
              "type": "uint256"
            },
            {
              "internalType": "address",
              "name": "creator",
              "type": "address"
            },
            {
              "internalType": "address payable",
              "name": "seller",
              "type": "address"
            },
            {
              "internalType": "address",
              "name": "owner",
              "type": "address"
            },
            {
              "internalType": "uint256",
              "name": "price",
              "type": "uint256"
            },
            {
              "internalType": "string",
              "name": "category",
              "type": "string"
            },
            {
              "internalType": "bool",
              "name": "listed",
              "type": "bool"
            },
            {
              "internalType": "bool",
              "name": "sold",
              "type": "bool"
            }
          ],
          "internalType": "struct Marketplace.NFT[]",
          "name": "",
          "type": "tuple[]"
        }
      ],
      "stateMutability": "view",
      "type": "function"
    },
    {
      "inputs": [],
      "name": "getSoldNfts",
      "outputs": [
        {
          "components": [
            {
              "internalType": "uint256",
              "name": "tokenId",
              "type": "uint256"
            },
            {
              "internalType": "address",
              "name": "creator",
              "type": "address"
            },
            {
              "internalType": "address payable",
              "name": "seller",
              "type": "address"
            },
            {
              "internalType": "address",
              "name": "owner",
              "type": "address"
            },
            {
              "internalType": "uint256",
              "name": "price",
              "type": "uint256"
            },
            {
              "internalType": "string",
              "name": "category",
              "type": "string"
            },
            {
              "internalType": "bool",
              "name": "listed",
              "type": "bool"
            },
            {
              "internalType": "bool",
              "name": "sold",
              "type": "bool"
            }
          ],
          "internalType": "struct Marketplace.NFT[]",
          "name": "",
          "type": "tuple[]"
        }
      ],
      "stateMutability": "view",
      "type": "function"
    },
    {
      "inputs": [
        {
          "internalType": "address",
          "name": "owner",
          "type": "address"
        },
        {
          "internalType": "address",
          "name": "operator",
          "type": "address"
        }
      ],
      "name": "isApprovedForAll",
      "outputs": [
        {
          "internalType": "bool",
          "name": "",
          "type": "bool"
        }
      ],
      "stateMutability": "view",
      "type": "function"
    },
    {
      "inputs": [
        {
          "internalType": "address",
          "name": "",
          "type": "address"
        }
      ],
      "name": "isBlacklisted",
      "outputs": [
        {
          "internalType": "bool",
          "name": "",
          "type": "bool"
        }
      ],
      "stateMutability": "view",
      "type": "function"
    },
    {
      "inputs": [
        {
          "internalType": "uint256",
          "name": "_tokenId",
          "type": "uint256"
        },
        {
          "internalType": "uint256",
          "name": "_price",
          "type": "uint256"
        },
        {
          "internalType": "uint256",
          "name": "categoryId",
          "type": "uint256"
        },
        {
          "internalType": "uint256",
          "name": "_promoID",
          "type": "uint256"
        }
      ],
      "name": "listMarketItem",
      "outputs": [],
      "stateMutability": "nonpayable",
      "type": "function"
    },
    {
      "inputs": [
        {
          "internalType": "string",
          "name": "tokenURI",
          "type": "string"
        },
        {
          "internalType": "uint256",
          "name": "categoryId",
          "type": "uint256"
        }
      ],
      "name": "mintNft",
      "outputs": [],
      "stateMutability": "nonpayable",
      "type": "function"
    },
    {
      "inputs": [],
      "name": "name",
      "outputs": [
        {
          "internalType": "string",
          "name": "",
          "type": "string"
        }
      ],
      "stateMutability": "view",
      "type": "function"
    },
    {
      "inputs": [
        {
          "internalType": "uint256",
          "name": "",
          "type": "uint256"
        }
      ],
      "name": "nftCategory",
      "outputs": [
        {
          "internalType": "string",
          "name": "",
          "type": "string"
        }
      ],
      "stateMutability": "view",
      "type": "function"
    },
    {
      "inputs": [
        {
          "internalType": "uint256",
          "name": "_categoryId",
          "type": "uint256"
        }
      ],
      "name": "nftsInCategory",
      "outputs": [
        {
          "internalType": "uint256[]",
          "name": "",
          "type": "uint256[]"
        }
      ],
      "stateMutability": "view",
      "type": "function"
    },
    {
      "inputs": [
        {
          "internalType": "uint256",
          "name": "tokenId",
          "type": "uint256"
        }
      ],
      "name": "ownerOf",
      "outputs": [
        {
          "internalType": "address",
          "name": "",
          "type": "address"
        }
      ],
      "stateMutability": "view",
      "type": "function"
    },
    {
      "inputs": [
        {
          "internalType": "uint256",
          "name": "_tokenId",
          "type": "uint256"
        },
        {
          "internalType": "uint256",
          "name": "_price",
          "type": "uint256"
        }
      ],
      "name": "resellNft",
      "outputs": [],
      "stateMutability": "nonpayable",
      "type": "function"
    },
    {
      "inputs": [
        {
          "internalType": "address",
          "name": "from",
          "type": "address"
        },
        {
          "internalType": "address",
          "name": "to",
          "type": "address"
        },
        {
          "internalType": "uint256",
          "name": "tokenId",
          "type": "uint256"
        }
      ],
      "name": "safeTransferFrom",
      "outputs": [],
      "stateMutability": "nonpayable",
      "type": "function"
    },
    {
      "inputs": [
        {
          "internalType": "address",
          "name": "from",
          "type": "address"
        },
        {
          "internalType": "address",
          "name": "to",
          "type": "address"
        },
        {
          "internalType": "uint256",
          "name": "tokenId",
          "type": "uint256"
        },
        {
          "internalType": "bytes",
          "name": "data",
          "type": "bytes"
        }
      ],
      "name": "safeTransferFrom",
      "outputs": [],
      "stateMutability": "nonpayable",
      "type": "function"
    },
    {
      "inputs": [
        {
          "internalType": "address",
          "name": "operator",
          "type": "address"
        },
        {
          "internalType": "bool",
          "name": "approved",
          "type": "bool"
        }
      ],
      "name": "setApprovalForAll",
      "outputs": [],
      "stateMutability": "nonpayable",
      "type": "function"
    },
    {
      "inputs": [
        {
          "internalType": "string",
          "name": "category",
          "type": "string"
        }
      ],
      "name": "setCategory",
      "outputs": [],
      "stateMutability": "nonpayable",
      "type": "function"
    },
    {
      "inputs": [
        {
          "internalType": "uint256",
          "name": "_promoId",
          "type": "uint256"
        },
        {
          "internalType": "uint256",
          "name": "_discountPer",
          "type": "uint256"
        }
      ],
      "name": "setPromo",
      "outputs": [],
      "stateMutability": "nonpayable",
      "type": "function"
    },
    {
      "inputs": [
        {
          "internalType": "bytes4",
          "name": "interfaceId",
          "type": "bytes4"
        }
      ],
      "name": "supportsInterface",
      "outputs": [
        {
          "internalType": "bool",
          "name": "",
          "type": "bool"
        }
      ],
      "stateMutability": "view",
      "type": "function"
    },
    {
      "inputs": [],
      "name": "symbol",
      "outputs": [
        {
          "internalType": "string",
          "name": "",
          "type": "string"
        }
      ],
      "stateMutability": "view",
      "type": "function"
    },
    {
      "inputs": [
        {
          "internalType": "uint256",
          "name": "tokenId",
          "type": "uint256"
        }
      ],
      "name": "tokenURI",
      "outputs": [
        {
          "internalType": "string",
          "name": "",
          "type": "string"
        }
      ],
      "stateMutability": "view",
      "type": "function"
    },
    {
      "inputs": [
        {
          "internalType": "address",
          "name": "from",
          "type": "address"
        },
        {
          "internalType": "address",
          "name": "to",
          "type": "address"
        },
        {
          "internalType": "uint256",
          "name": "tokenId",
          "type": "uint256"
        }
      ],
      "name": "transferFrom",
      "outputs": [],
      "stateMutability": "nonpayable",
      "type": "function"
    },
    {
      "inputs": [
        {
          "internalType": "uint256",
          "name": "_valueInBips",
          "type": "uint256"
        }
      ],
      "name": "updateSellingFee",
      "outputs": [],
      "stateMutability": "nonpayable",
      "type": "function"
    }
  ],
  "bytecode": "0x60806040523480156200001157600080fd5b5060405162003e5238038062003e52833981016040819052620000349162000159565b60408051808201825260048152634765743360e01b60208083019182528351808501909452600284526111d560f21b9084015281519192916200007a91600091620000b3565b50805162000090906001906020840190620000b3565b5050600160075550600c55600d80546001600160a01b03191633179055620001af565b828054620000c19062000173565b90600052602060002090601f016020900481019282620000e5576000855562000130565b82601f106200010057805160ff191683800117855562000130565b8280016001018555821562000130579182015b828111156200013057825182559160200191906001019062000113565b506200013e92915062000142565b5090565b5b808211156200013e576000815560010162000143565b6000602082840312156200016c57600080fd5b5051919050565b600181811c908216806200018857607f821691505b602082108103620001a957634e487b7160e01b600052602260045260246000fd5b50919050565b613c9380620001bf6000396000f3fe6080604052600436106101fe5760003560e01c806364a3b5ec1161011d578063b9e07df1116100b0578063cdc66b2c1161007f578063e985e9c511610064578063e985e9c5146105e2578063f8637dcc1461062b578063fe575a871461064b57600080fd5b8063cdc66b2c146105b7578063d9995856146105cd57600080fd5b8063b9e07df114610523578063bd5651c314610557578063c1a28b3814610577578063c87b56dd1461059757600080fd5b80638d6cb3fb116100ec5780638d6cb3fb146104b957806395d89b41146104ce578063a22cb465146104e3578063b88d4fde1461050357600080fd5b806364a3b5ec14610439578063672434821461045957806370a082311461047957806373864f3e1461049957600080fd5b806323b872dd1161019557806342842e0e1161016457806342842e0e146103ab5780634623c740146103cb5780634d2af2b2146103f95780636352211e1461041957600080fd5b806323b872dd14610338578063243adbdd146103585780632999077d1461036b5780632c7e5ec11461038b57600080fd5b8063095ea7b3116101d1578063095ea7b3146102b45780630ef62d1a146102d65780631f4cc4db1461030357806320d748e71461031857600080fd5b806301ffc9a714610203578063047b07bf1461023857806306fdde031461025a578063081812fc1461027c575b600080fd5b34801561020f57600080fd5b5061022361021e366004613391565b61067b565b60405190151581526020015b60405180910390f35b34801561024457600080fd5b5061024d610718565b60405161022f9190613406565b34801561026657600080fd5b5061026f6109c0565b60405161022f91906134dc565b34801561028857600080fd5b5061029c6102973660046134ef565b610a52565b6040516001600160a01b03909116815260200161022f565b3480156102c057600080fd5b506102d46102cf366004613524565b610a79565b005b3480156102e257600080fd5b506102f66102f13660046134ef565b610baf565b60405161022f919061354e565b34801561030f57600080fd5b5061024d610c11565b34801561032457600080fd5b506102d4610333366004613592565b610f0d565b34801561034457600080fd5b506102d46103533660046135b4565b611016565b6102d46103663660046134ef565b61108d565b34801561037757600080fd5b506102d4610386366004613592565b611288565b34801561039757600080fd5b506102d46103a636600461369c565b611339565b3480156103b757600080fd5b506102d46103c63660046135b4565b6114ab565b3480156103d757600080fd5b506103eb6103e63660046136e1565b6114c6565b60405190815260200161022f565b34801561040557600080fd5b506103eb610414366004613592565b611806565b34801561042557600080fd5b5061029c6104343660046134ef565b611834565b34801561044557600080fd5b506102d4610454366004613735565b611899565b34801561046557600080fd5b506102d46104743660046137b3565b611b33565b34801561048557600080fd5b506103eb61049436600461381f565b611c15565b3480156104a557600080fd5b506102d46104b43660046134ef565b611caf565b3480156104c557600080fd5b5061024d611d03565b3480156104da57600080fd5b5061026f611f52565b3480156104ef57600080fd5b506102d46104fe36600461383a565b611f61565b34801561050f57600080fd5b506102d461051e366004613876565b611f6c565b34801561052f57600080fd5b5061054361053e3660046134ef565b611fe4565b60405161022f9897969594939291906138f2565b34801561056357600080fd5b5061026f6105723660046134ef565b6120c5565b34801561058357600080fd5b506102d4610592366004613950565b61215f565b3480156105a357600080fd5b5061026f6105b23660046134ef565b6121eb565b3480156105c357600080fd5b506103eb600c5481565b3480156105d957600080fd5b5061024d6121f6565b3480156105ee57600080fd5b506102236105fd366004613985565b6001600160a01b03918216600090815260056020908152604080832093909416825291909152205460ff1690565b34801561063757600080fd5b506102d461064636600461381f565b612440565b34801561065757600080fd5b5061022361066636600461381f565b600f6020526000908152604090205460ff1681565b60006001600160e01b031982167f80ac58cd0000000000000000000000000000000000000000000000000000000014806106de57506001600160e01b031982167f5b5e139f00000000000000000000000000000000000000000000000000000000145b8061071257507f01ffc9a7000000000000000000000000000000000000000000000000000000006001600160e01b03198316145b92915050565b60606000610725600a5490565b90506000805b828110156107855733600e60006107438460016139ce565b81526020810191909152604001600020600301546001600160a01b031603610773578161076f816139e6565b9250505b8061077d816139e6565b91505061072b565b5060008167ffffffffffffffff8111156107a1576107a16135f0565b60405190808252806020026020018201604052801561080f57816020015b60408051610100810182526000808252602080830182905292820181905260608083018290526080830182905260a083015260c0820181905260e082015282526000199092019101816107bf5790505b5090506000805b848110156109b65733600e600061082e8460016139ce565b81526020810191909152604001600020600301546001600160a01b0316036109a457600e600061085f8360016139ce565b815260208082019290925260409081016000208151610100810183528154815260018201546001600160a01b03908116948201949094526002820154841692810192909252600381015490921660608201526004820154608082015260058201805491929160a0840191906108d3906139ff565b80601f01602080910402602001604051908101604052809291908181526020018280546108ff906139ff565b801561094c5780601f106109215761010080835404028352916020019161094c565b820191906000526020600020905b81548152906001019060200180831161092f57829003601f168201915b50505091835250506006919091015460ff80821615156020840152610100909104161515604090910152835184908490811061098a5761098a613a39565b602002602001018190525081806109a0906139e6565b9250505b806109ae816139e6565b915050610816565b5090949350505050565b6060600080546109cf906139ff565b80601f01602080910402602001604051908101604052809291908181526020018280546109fb906139ff565b8015610a485780601f10610a1d57610100808354040283529160200191610a48565b820191906000526020600020905b815481529060010190602001808311610a2b57829003601f168201915b5050505050905090565b6000610a5d8261256d565b506000908152600460205260409020546001600160a01b031690565b6000610a8482611834565b9050806001600160a01b0316836001600160a01b031603610b125760405162461bcd60e51b815260206004820152602160248201527f4552433732313a20617070726f76616c20746f2063757272656e74206f776e6560448201527f720000000000000000000000000000000000000000000000000000000000000060648201526084015b60405180910390fd5b336001600160a01b0382161480610b2e5750610b2e81336105fd565b610ba05760405162461bcd60e51b815260206004820152603d60248201527f4552433732313a20617070726f76652063616c6c6572206973206e6f7420746f60448201527f6b656e206f776e6572206f7220617070726f76656420666f7220616c6c0000006064820152608401610b09565b610baa83836125d1565b505050565b600081815260116020908152604091829020805483518184028101840190945280845260609392830182828015610c0557602002820191906000526020600020905b815481526020019060010190808311610bf1575b50505050509050919050565b60606000610c1e600a5490565b90506000805b82811015610cad5733600e6000610c3c8460016139ce565b81526020810191909152604001600020600201546001600160a01b0316148015610c885750600e6000610c708360016139ce565b815260208101919091526040016000206006015460ff165b15610c9b5781610c97816139e6565b9250505b80610ca5816139e6565b915050610c24565b5060008167ffffffffffffffff811115610cc957610cc96135f0565b604051908082528060200260200182016040528015610d3757816020015b60408051610100810182526000808252602080830182905292820181905260608083018290526080830182905260a083015260c0820181905260e08201528252600019909201910181610ce75790505b5090506000805b848110156109b65733600e6000610d568460016139ce565b81526020810191909152604001600020600201546001600160a01b0316148015610da25750600e6000610d8a8360016139ce565b815260208101919091526040016000206006015460ff165b15610efb57600e6000610db68360016139ce565b815260208082019290925260409081016000208151610100810183528154815260018201546001600160a01b03908116948201949094526002820154841692810192909252600381015490921660608201526004820154608082015260058201805491929160a084019190610e2a906139ff565b80601f0160208091040260200160405190810160405280929190818152602001828054610e56906139ff565b8015610ea35780601f10610e7857610100808354040283529160200191610ea3565b820191906000526020600020905b815481529060010190602001808311610e8657829003601f168201915b50505091835250506006919091015460ff808216151560208401526101009091041615156040909101528351849084908110610ee157610ee1613a39565b60200260200101819052508180610ef7906139e6565b9250505b80610f05816139e6565b915050610d3e565b610f1561263f565b60008111610f655760405162461bcd60e51b815260206004820152601c60248201527f5072696365206d757374206265206174206c65617374203120776569000000006044820152606401610b09565b610f70333084612698565b6000828152600e602052604090206002810180546001600160a01b031990811633179091556003820180549091163017905560068101805461ffff1916600117905560048101829055610fc3600861289e565b7f27f3c61ab4324ab96eaa641f2df76facb0bf361078f8cde3a844ae24bd8fbaab833333308686600501604051610fff96959493929190613aee565b60405180910390a1506110126001600755565b5050565b61102033826128f5565b6110825760405162461bcd60e51b815260206004820152602d60248201527f4552433732313a2063616c6c6572206973206e6f7420746f6b656e206f776e6560448201526c1c881bdc88185c1c1c9bdd9959609a1b6064820152608401610b09565b610baa838383612698565b61109561263f565b6000818152600e6020526040902060048101546110b490600190613b3a565b34146111285760405162461bcd60e51b815260206004820152602660248201527f4e6f7420656e6f75676820657468657220746f20636f7665722061736b696e6760448201527f20707269636500000000000000000000000000000000000000000000000000006064820152608401610b09565b6000612710600c54836004015461113f9190613b5c565b6111499190613b3a565b90503460006111588383613b7b565b600285015460405191925033916001600160a01b039091169083156108fc029084906000818181858888f19350505050158015611199573d6000803e3d6000fd5b506111a930828760000154612698565b600d546040516001600160a01b039091169085156108fc029086906000818181858888f193505050501580156111e3573d6000803e3d6000fd5b506003850180546001600160a01b0383166001600160a01b031990911617905560068501805461ffff1916610100179055611222600880546001019055565b845460028601546040517fc442990c12cfde34f20dbf8cfffa76d0b15c6f3282c7016e1a1dd2c70dae03d59261126e9290916001600160a01b03909116908590349060058c0190613b92565b60405180910390a150505050506112856001600755565b50565b600d546001600160a01b031633146112d75760405162461bcd60e51b815260206004820152601260248201527113db9b1e4813dddb995c88105b1b1bddd95960721b6044820152606401610b09565b600082116113275760405162461bcd60e51b815260206004820152600e60248201527f4964206d757374206265203e20300000000000000000000000000000000000006044820152606401610b09565b60009182526012602052604090912055565b336000908152600f602052604090205460ff16151560010361139d5760405162461bcd60e51b815260206004820152601760248201527f426c61636b6c6973746564204e6f7420416c6c6f7765640000000000000000006044820152606401610b09565b6113ab600980546001019055565b60006113b660095490565b90506113c6600a80546001019055565b6000818152600e60208181526040808420600381018054336001600160a01b0319918216811790925560018301805490911690911790558581558685526010835290842093859052919052815460059091019190611423906139ff565b61142e929190613267565b506114393382612973565b611443818461298d565b6000828152601160209081526040808320805460018101825590845292829020909201839055815183815233918101829052918201527f331d023184405eeb32d693804ea42e04df180882b4d7345e4e5f5e8cbaf4c5b39060600160405180910390a1505050565b610baa83838360405180602001604052806000815250611f6c565b336000908152600f602052604081205460ff16151560010361152a5760405162461bcd60e51b815260206004820152601760248201527f426c61636b6c6973746564204e6f7420416c6c6f7765640000000000000000006044820152606401610b09565b611538600980546001019055565b600061154360095490565b905061154f3382612973565b611559818761298d565b600085116115a95760405162461bcd60e51b815260206004820152601c60248201527f5072696365206d757374206265206174206c65617374203120776569000000006044820152606401610b09565b6115b4333083612698565b6115c2600a80546001019055565b60006115ce8685611806565b905060006115dc8288613b7b565b9050604051806101000160405280848152602001336001600160a01b03168152602001336001600160a01b03168152602001306001600160a01b03168152602001828152602001601060008981526020019081526020016000208054611641906139ff565b80601f016020809104026020016040519081016040528092919081815260200182805461166d906139ff565b80156116ba5780601f1061168f576101008083540402835291602001916116ba565b820191906000526020600020905b81548152906001019060200180831161169d57829003601f168201915b50505091835250506001602080830182905260006040938401819052878152600e8252839020845181558482015192810180546001600160a01b039485166001600160a01b031991821617909155938501516002820180549185169186169190911790556060850151600382018054919094169416939093179091556080830151600483015560a0830151805161175792600585019201906132f2565b5060c08201516006909101805460e09093015115156101000261ff00199215159290921661ffff1990931692909217179055600086815260116020908152604080832080546001810182559084528284200186905588835260109091529081902090517f27f3c61ab4324ab96eaa641f2df76facb0bf361078f8cde3a844ae24bd8fbaab916117f09186913391829130918e9190613aee565b60405180910390a150909150505b949350505050565b600081815260126020526040812054612710906118239085613b5c565b61182d9190613b3a565b9392505050565b6000818152600260205260408120546001600160a01b0316806107125760405162461bcd60e51b815260206004820152601860248201527f4552433732313a20696e76616c696420746f6b656e20494400000000000000006044820152606401610b09565b6118a161263f565b600083116118f15760405162461bcd60e51b815260206004820152601c60248201527f5072696365206d757374206265206174206c65617374203120776569000000006044820152606401610b09565b6118fc333086612698565b61190a600a80546001019055565b60006119168483611806565b905060006119248286613b7b565b9050604051806101000160405280878152602001336001600160a01b03168152602001336001600160a01b03168152602001306001600160a01b03168152602001828152602001601060008781526020019081526020016000208054611989906139ff565b80601f01602080910402602001604051908101604052809291908181526020018280546119b5906139ff565b8015611a025780601f106119d757610100808354040283529160200191611a02565b820191906000526020600020905b8154815290600101906020018083116119e557829003601f168201915b505050918352505060016020808301829052600060409384018190528a8152600e8252839020845181558482015192810180546001600160a01b039485166001600160a01b031991821617909155938501516002820180549185169186169190911790556060850151600382018054919094169416939093179091556080830151600483015560a08301518051611a9f92600585019201906132f2565b5060c08201516006909101805460e09093015115156101000261ff00199215159290921661ffff19909316929092171790556000848152601060205260409081902090517f27f3c61ab4324ab96eaa641f2df76facb0bf361078f8cde3a844ae24bd8fbaab91611b199189913391829130918c9190613aee565b60405180910390a15050611b2d6001600755565b50505050565b828114611ba85760405162461bcd60e51b815260206004820152602960248201527f52656365697665727320616e6420616d6f756e7473206172652064696666657260448201527f6e74206c656e67746800000000000000000000000000000000000000000000006064820152608401610b09565b60005b83811015611c0e57611bfc33868684818110611bc957611bc9613a39565b9050602002016020810190611bde919061381f565b858585818110611bf057611bf0613a39565b90506020020135612698565b80611c06816139e6565b915050611bab565b5050505050565b60006001600160a01b038216611c935760405162461bcd60e51b815260206004820152602960248201527f4552433732313a2061646472657373207a65726f206973206e6f74206120766160448201527f6c6964206f776e657200000000000000000000000000000000000000000000006064820152608401610b09565b506001600160a01b031660009081526003602052604090205490565b600d546001600160a01b03163314611cfe5760405162461bcd60e51b815260206004820152601260248201527113db9b1e4813dddb995c88105b1b1bddd95960721b6044820152606401610b09565b600c55565b60606000611d10600a5490565b90506000611d1d60085490565b611d279083613b7b565b905060008167ffffffffffffffff811115611d4457611d446135f0565b604051908082528060200260200182016040528015611db257816020015b60408051610100810182526000808252602080830182905292820181905260608083018290526080830182905260a083015260c0820181905260e08201528252600019909201910181611d625790505b5090506000805b848110156109b657600e6000611dd08360016139ce565b815260208101919091526040016000206006015460ff1615611f4057600e6000611dfb8360016139ce565b815260208082019290925260409081016000208151610100810183528154815260018201546001600160a01b03908116948201949094526002820154841692810192909252600381015490921660608201526004820154608082015260058201805491929160a084019190611e6f906139ff565b80601f0160208091040260200160405190810160405280929190818152602001828054611e9b906139ff565b8015611ee85780601f10611ebd57610100808354040283529160200191611ee8565b820191906000526020600020905b815481529060010190602001808311611ecb57829003601f168201915b50505091835250506006919091015460ff808216151560208401526101009091041615156040909101528351849084908110611f2657611f26613a39565b60200260200101819052508180611f3c906139e6565b9250505b80611f4a816139e6565b915050611db9565b6060600180546109cf906139ff565b611012338383612a36565b611f7633836128f5565b611fd85760405162461bcd60e51b815260206004820152602d60248201527f4552433732313a2063616c6c6572206973206e6f7420746f6b656e206f776e6560448201526c1c881bdc88185c1c1c9bdd9959609a1b6064820152608401610b09565b611b2d84848484612b04565b600e6020526000908152604090208054600182015460028301546003840154600485015460058601805495966001600160a01b03958616969486169590931693919291612030906139ff565b80601f016020809104026020016040519081016040528092919081815260200182805461205c906139ff565b80156120a95780601f1061207e576101008083540402835291602001916120a9565b820191906000526020600020905b81548152906001019060200180831161208c57829003601f168201915b5050506006909301549192505060ff8082169161010090041688565b601060205260009081526040902080546120de906139ff565b80601f016020809104026020016040519081016040528092919081815260200182805461210a906139ff565b80156121575780601f1061212c57610100808354040283529160200191612157565b820191906000526020600020905b81548152906001019060200180831161213a57829003601f168201915b505050505081565b600d546001600160a01b031633146121ae5760405162461bcd60e51b815260206004820152601260248201527113db9b1e4813dddb995c88105b1b1bddd95960721b6044820152606401610b09565b6121bc600b80546001019055565b60006121c7600b5490565b60008181526010602090815260409091208451929350610baa9290918501906132f2565b606061071282612b82565b60606000612203600a5490565b9050600061221060085490565b905060008167ffffffffffffffff81111561222d5761222d6135f0565b60405190808252806020026020018201604052801561229b57816020015b60408051610100810182526000808252602080830182905292820181905260608083018290526080830182905260a083015260c0820181905260e0820152825260001990920191018161224b5790505b5090506000805b848110156109b657600e60006122b98360016139ce565b8152602081019190915260400160002060060154610100900460ff161561242e57600e60006122e98360016139ce565b815260208082019290925260409081016000208151610100810183528154815260018201546001600160a01b03908116948201949094526002820154841692810192909252600381015490921660608201526004820154608082015260058201805491929160a08401919061235d906139ff565b80601f0160208091040260200160405190810160405280929190818152602001828054612389906139ff565b80156123d65780601f106123ab576101008083540402835291602001916123d6565b820191906000526020600020905b8154815290600101906020018083116123b957829003601f168201915b50505091835250506006919091015460ff80821615156020840152610100909104161515604090910152835184908490811061241457612414613a39565b6020026020010181905250818061242a906139e6565b9250505b80612438816139e6565b9150506122a2565b600d546001600160a01b0316331461248f5760405162461bcd60e51b815260206004820152601260248201527113db9b1e4813dddb995c88105b1b1bddd95960721b6044820152606401610b09565b6001600160a01b0381166000908152600f602052604081205460ff1615159003612515576001600160a01b0381166000818152600f6020908152604091829020805460ff191660011790558151338152908101929092527fd36871fdf6981136f3ac0564927005901eda06f7a9dff1e8b2a1d7846b8ebb5091015b60405180910390a150565b6001600160a01b0381166000818152600f6020908152604091829020805460ff191690558151338152908101929092527f193b92a10b51f3bf3240a12ebae6a2f3599f9f0c573ba62327513f98d1e5f164910161250a565b6000818152600260205260409020546001600160a01b03166112855760405162461bcd60e51b815260206004820152601860248201527f4552433732313a20696e76616c696420746f6b656e20494400000000000000006044820152606401610b09565b600081815260046020526040902080546001600160a01b0319166001600160a01b038416908117909155819061260682611834565b6001600160a01b03167f8c5be1e5ebec7d5bd14f71427d1e84f3dd0314c0f7b2291e5b200ac8c7c3b92560405160405180910390a45050565b6002600754036126915760405162461bcd60e51b815260206004820152601f60248201527f5265656e7472616e637947756172643a207265656e7472616e742063616c6c006044820152606401610b09565b6002600755565b826001600160a01b03166126ab82611834565b6001600160a01b03161461270f5760405162461bcd60e51b815260206004820152602560248201527f4552433732313a207472616e736665722066726f6d20696e636f72726563742060448201526437bbb732b960d91b6064820152608401610b09565b6001600160a01b03821661278a5760405162461bcd60e51b8152602060048201526024808201527f4552433732313a207472616e7366657220746f20746865207a65726f2061646460448201527f72657373000000000000000000000000000000000000000000000000000000006064820152608401610b09565b6127978383836001612c8a565b826001600160a01b03166127aa82611834565b6001600160a01b03161461280e5760405162461bcd60e51b815260206004820152602560248201527f4552433732313a207472616e736665722066726f6d20696e636f72726563742060448201526437bbb732b960d91b6064820152608401610b09565b600081815260046020908152604080832080546001600160a01b03199081169091556001600160a01b0387811680865260038552838620805460001901905590871680865283862080546001019055868652600290945282852080549092168417909155905184937fddf252ad1be2c89b69c2b068fc378daa952ba7f163c4a11628f55a4df523b3ef91a4505050565b8054806128ed5760405162461bcd60e51b815260206004820152601b60248201527f436f756e7465723a2064656372656d656e74206f766572666c6f7700000000006044820152606401610b09565b600019019055565b60008061290183611834565b9050806001600160a01b0316846001600160a01b0316148061294857506001600160a01b0380821660009081526005602090815260408083209388168352929052205460ff165b806117fe5750836001600160a01b031661296184610a52565b6001600160a01b031614949350505050565b611012828260405180602001604052806000815250612d12565b6000828152600260205260409020546001600160a01b0316612a175760405162461bcd60e51b815260206004820152602e60248201527f45524337323155524953746f726167653a2055524920736574206f66206e6f6e60448201527f6578697374656e7420746f6b656e0000000000000000000000000000000000006064820152608401610b09565b60008281526006602090815260409091208251610baa928401906132f2565b816001600160a01b0316836001600160a01b031603612a975760405162461bcd60e51b815260206004820152601960248201527f4552433732313a20617070726f766520746f2063616c6c6572000000000000006044820152606401610b09565b6001600160a01b03838116600081815260056020908152604080832094871680845294825291829020805460ff191686151590811790915591519182527f17307eab39ab6107e8899845ad3d59bd9653f200f220920489ca2b5937696c31910160405180910390a3505050565b612b0f848484612698565b612b1b84848484612d90565b611b2d5760405162461bcd60e51b815260206004820152603260248201527f4552433732313a207472616e7366657220746f206e6f6e20455243373231526560448201527131b2b4bb32b91034b6b83632b6b2b73a32b960711b6064820152608401610b09565b6060612b8d8261256d565b60008281526006602052604081208054612ba6906139ff565b80601f0160208091040260200160405190810160405280929190818152602001828054612bd2906139ff565b8015612c1f5780601f10612bf457610100808354040283529160200191612c1f565b820191906000526020600020905b815481529060010190602001808311612c0257829003601f168201915b505050505090506000612c3d60408051602081019091526000815290565b90508051600003612c4f575092915050565b815115612c81578082604051602001612c69929190613bd5565b60405160208183030381529060405292505050919050565b6117fe84612ed9565b6001811115611b2d576001600160a01b03841615612cd0576001600160a01b03841660009081526003602052604081208054839290612cca908490613b7b565b90915550505b6001600160a01b03831615611b2d576001600160a01b03831660009081526003602052604081208054839290612d079084906139ce565b909155505050505050565b612d1c8383612f4c565b612d296000848484612d90565b610baa5760405162461bcd60e51b815260206004820152603260248201527f4552433732313a207472616e7366657220746f206e6f6e20455243373231526560448201527131b2b4bb32b91034b6b83632b6b2b73a32b960711b6064820152608401610b09565b60006001600160a01b0384163b15612ed157604051630a85bd0160e11b81526001600160a01b0385169063150b7a0290612dd4903390899088908890600401613c04565b6020604051808303816000875af1925050508015612e0f575060408051601f3d908101601f19168201909252612e0c91810190613c40565b60015b612eb7573d808015612e3d576040519150601f19603f3d011682016040523d82523d6000602084013e612e42565b606091505b508051600003612eaf5760405162461bcd60e51b815260206004820152603260248201527f4552433732313a207472616e7366657220746f206e6f6e20455243373231526560448201527131b2b4bb32b91034b6b83632b6b2b73a32b960711b6064820152608401610b09565b805181602001fd5b6001600160e01b031916630a85bd0160e11b1490506117fe565b5060016117fe565b6060612ee48261256d565b6000612efb60408051602081019091526000815290565b90506000815111612f1b576040518060200160405280600081525061182d565b80612f25846130e5565b604051602001612f36929190613bd5565b6040516020818303038152906040529392505050565b6001600160a01b038216612fa25760405162461bcd60e51b815260206004820181905260248201527f4552433732313a206d696e7420746f20746865207a65726f20616464726573736044820152606401610b09565b6000818152600260205260409020546001600160a01b0316156130075760405162461bcd60e51b815260206004820152601c60248201527f4552433732313a20746f6b656e20616c7265616479206d696e746564000000006044820152606401610b09565b613015600083836001612c8a565b6000818152600260205260409020546001600160a01b03161561307a5760405162461bcd60e51b815260206004820152601c60248201527f4552433732313a20746f6b656e20616c7265616479206d696e746564000000006044820152606401610b09565b6001600160a01b038216600081815260036020908152604080832080546001019055848352600290915280822080546001600160a01b0319168417905551839291907fddf252ad1be2c89b69c2b068fc378daa952ba7f163c4a11628f55a4df523b3ef908290a45050565b606060006130f283613185565b600101905060008167ffffffffffffffff811115613112576131126135f0565b6040519080825280601f01601f19166020018201604052801561313c576020820181803683370190505b5090508181016020015b600019017f3031323334353637383961626364656600000000000000000000000000000000600a86061a8153600a850494508461314657509392505050565b6000807a184f03e93ff9f4daa797ed6e38ed64bf6a1f01000000000000000083106131ce577a184f03e93ff9f4daa797ed6e38ed64bf6a1f010000000000000000830492506040015b6d04ee2d6d415b85acef810000000083106131fa576d04ee2d6d415b85acef8100000000830492506020015b662386f26fc10000831061321857662386f26fc10000830492506010015b6305f5e1008310613230576305f5e100830492506008015b612710831061324457612710830492506004015b60648310613256576064830492506002015b600a83106107125760010192915050565b828054613273906139ff565b90600052602060002090601f01602090048101928261329557600085556132e2565b82601f106132a657805485556132e2565b828001600101855582156132e257600052602060002091601f016020900482015b828111156132e25782548255916001019190600101906132c7565b506132ee929150613366565b5090565b8280546132fe906139ff565b90600052602060002090601f01602090048101928261332057600085556132e2565b82601f1061333957805160ff19168380011785556132e2565b828001600101855582156132e2579182015b828111156132e257825182559160200191906001019061334b565b5b808211156132ee5760008155600101613367565b6001600160e01b03198116811461128557600080fd5b6000602082840312156133a357600080fd5b813561182d8161337b565b60005b838110156133c95781810151838201526020016133b1565b83811115611b2d5750506000910152565b600081518084526133f28160208601602086016133ae565b601f01601f19169290920160200192915050565b60006020808301818452808551808352604092508286019150828160051b87010184880160005b838110156134ce57888303603f19018552815180518452878101516001600160a01b039081168986015287820151811688860152606080830151909116908501526080808201519085015260a0808201516101008287018190529190613495838801826133da565b9250505060c0808301516134ac8288018215159052565b505060e09182015115159490910193909352938601939086019060010161342d565b509098975050505050505050565b60208152600061182d60208301846133da565b60006020828403121561350157600080fd5b5035919050565b80356001600160a01b038116811461351f57600080fd5b919050565b6000806040838503121561353757600080fd5b61354083613508565b946020939093013593505050565b6020808252825182820181905260009190848201906040850190845b818110156135865783518352928401929184019160010161356a565b50909695505050505050565b600080604083850312156135a557600080fd5b50508035926020909101359150565b6000806000606084860312156135c957600080fd5b6135d284613508565b92506135e060208501613508565b9150604084013590509250925092565b634e487b7160e01b600052604160045260246000fd5b600067ffffffffffffffff80841115613621576136216135f0565b604051601f8501601f19908116603f01168101908282118183101715613649576136496135f0565b8160405280935085815286868601111561366257600080fd5b858560208301376000602087830101525050509392505050565b600082601f83011261368d57600080fd5b61182d83833560208501613606565b600080604083850312156136af57600080fd5b823567ffffffffffffffff8111156136c657600080fd5b6136d28582860161367c565b95602094909401359450505050565b600080600080608085870312156136f757600080fd5b843567ffffffffffffffff81111561370e57600080fd5b61371a8782880161367c565b97602087013597506040870135966060013595509350505050565b6000806000806080858703121561374b57600080fd5b5050823594602084013594506040840135936060013592509050565b60008083601f84011261377957600080fd5b50813567ffffffffffffffff81111561379157600080fd5b6020830191508360208260051b85010111156137ac57600080fd5b9250929050565b600080600080604085870312156137c957600080fd5b843567ffffffffffffffff808211156137e157600080fd5b6137ed88838901613767565b9096509450602087013591508082111561380657600080fd5b5061381387828801613767565b95989497509550505050565b60006020828403121561383157600080fd5b61182d82613508565b6000806040838503121561384d57600080fd5b61385683613508565b91506020830135801515811461386b57600080fd5b809150509250929050565b6000806000806080858703121561388c57600080fd5b61389585613508565b93506138a360208601613508565b925060408501359150606085013567ffffffffffffffff8111156138c657600080fd5b8501601f810187136138d757600080fd5b6138e687823560208401613606565b91505092959194509250565b60006101008a83526001600160a01b03808b166020850152808a1660408501528089166060850152508660808401528060a0840152613933818401876133da565b94151560c0840152505090151560e0909101529695505050505050565b60006020828403121561396257600080fd5b813567ffffffffffffffff81111561397957600080fd5b6117fe8482850161367c565b6000806040838503121561399857600080fd5b6139a183613508565b91506139af60208401613508565b90509250929050565b634e487b7160e01b600052601160045260246000fd5b600082198211156139e1576139e16139b8565b500190565b6000600182016139f8576139f86139b8565b5060010190565b600181811c90821680613a1357607f821691505b602082108103613a3357634e487b7160e01b600052602260045260246000fd5b50919050565b634e487b7160e01b600052603260045260246000fd5b8054600090600181811c9080831680613a6957607f831692505b60208084108203613a8a57634e487b7160e01b600052602260045260246000fd5b83885260208801828015613aa55760018114613ab657613ae1565b60ff19871682528282019750613ae1565b60008981526020902060005b87811015613adb57815484820152908601908401613ac2565b83019850505b5050505050505092915050565b86815260006001600160a01b038088166020840152808716604084015280861660608401525083608083015260c060a0830152613b2e60c0830184613a4f565b98975050505050505050565b600082613b5757634e487b7160e01b600052601260045260246000fd5b500490565b6000816000190483118215151615613b7657613b766139b8565b500290565b600082821015613b8d57613b8d6139b8565b500390565b85815260006001600160a01b03808716602084015280861660408401525083606083015260a06080830152613bca60a0830184613a4f565b979650505050505050565b60008351613be78184602088016133ae565b835190830190613bfb8183602088016133ae565b01949350505050565b60006001600160a01b03808716835280861660208401525083604083015260806060830152613c3660808301846133da565b9695505050505050565b600060208284031215613c5257600080fd5b815161182d8161337b56fea26469706673582212206df77d3193e76ef253cce9dd865c8b92497e3c00215856349cd6844009e05dbb64736f6c634300080d0033",
  "linkReferences": {},
  "deployedLinkReferences": {}
}